:100000000D308A00AF2D00000A108A100A110B3E35
:1000100003188A0A820000340034003400340034AB
:10002000003400345F3400340034003403340034CE
:100030000334003414343E3414343E341434243441
:100040002A347F342A341234433433340834663447
:100050006134363449345534223450340034053454
:1000600003340034003400341C342234413400346E
:100070000034413422341C340034143408343E3407
:1000800008341434083408343E3408340834003456
:100090005034303400340034083408340834083420
:1000A00008340034603460340034003420341034B8
:1000B0000834043402343E345134493445343E3437
:1000C0000034043402347F34003442346134513417
:1000D00049344634223441344934493436341834AE
:1000E000143412347F3410342734453445344534C5
:1000F00039343E34493449344934323401340134DA
:100100007134093407343634493449344934363487
:1001100026344934493449343E3400343634363494
:10012000003400340034563436340034003408349B
:100130001434223441340034143414341434143458
:100140001434003441342234143408340234013479
:100150005134093406343E344134593455345E3414
:100160007E340934093409347E347F3449344934C7
:10017000493436343E3441344134413422347F34BE
:100180004134413441343E347F3449344934493474
:1001900041347F3409340934093401343E34413464
:1001A000413449343A347F340834083408347F34D5
:1001B000003441347F3441340034303440344034EE
:1001C00040343F347F3408341434223441347F3493
:1001D00040344034403440347F3402340C340234F0
:1001E0007F347F340234043408347F343E34413465
:1001F000413441343E347F340934093409340634FF
:100200001E342134213421345E347F3409340934DE
:10021000093476340A148A100A11820726344934C4
:10022000493449343234013401347F3401340134E7
:100230003F344034403440343F341F342034403461
:1002400020341F347F342034103420347F34413440
:1002500022341C34223441340734083470340834D6
:1002600007346134513449344534433400347F34E5
:10027000413400340034023404340834103420345F
:100280000034003441347F34003404340234013407
:100290000234043440344034403440344034003478
:1002A000013402340434003420345434543454348B
:1002B00078347F3444344434443438343834443427
:1002C00044344434443438344434443444347F343F
:1002D00038345434543454341834043404347E34AC
:1002E0000534053408345434543454343C347F34A5
:1002F0000834043404347834003444347D344034D5
:1003000000342034403444343D3400347F341034DD
:10031000283444340034003441347F3440340034D1
:100320007C3404347834043478347C340834043431
:1003300004347834383444344434443438347C34E9
:100340001434143414340834083414341434143485
:100350007C3400347C340834043404344834543459
:10036000543454342034043404343F344434443456
:100370003C344034403420347C341C342034403409
:1003800020341C343C344034303440343C34443425
:1003900028341034283444340C345034503450341D
:1003A0003C344434643454344C34443400340834DD
:1003B000363441344134003400347F340034003466
:1003C00041344134363408340034023401340234C8
:1003D00004340234FB0001307A078A007B08F33EC4
:1003E00003188A0A8200FF34FF34FF34FF34FF34DD
:1003F000FF34FF34FF34FF34FF34FF34FF34FF3465
:10040000FF34FF34FF34FF34FF34FF34FF34FF3454
:10041000FF34FF34FF34FF34FF34FF34FF34FF3444
:10042000FF34FF34FF34FF34FF34FF34FF34FF3434
:10043000FF34FF34FF34FF34FF34FF34FF34FF3424
:10044000FF34FF34FF34FF34FF34FF34FF34FF3414
:10045000FF34FF34FF34FF34FF34FF34FF34FF3404
:10046000FF34FF34FF34FF34FF34FF34FF34FF34F4
:10047000FF34FF34FF34FF34FF34FF34FF34FF34E4
:10048000FF34FF347F347F343F343F343F341F34F4
:100490001F341F341F340F340F340F340F340F3414
:1004A0000F340F340F340F340F340F340F340F3434
:1004B0000F340F340F341F341F341F343F343F3494
:1004C0003F347F347F34FF34FF34FF34FF34FF3454
:1004D000FF34FF34FF34FF34FF34FF34FF34FF3484
:1004E000FF34FF34FF34FF34FF34FF34FF34FF3474
:1004F000FF34FF34FF34FF34FF34FF34FF34FF3464
:10050000FF34FF34FF34FF34FF347F343F341F3473
:100510001F340F340F340F340734073407340734D3
:10052000033403340334033403340334033407340F
:100530000734073407340F340F340F341F341F349B
:100540003F347F347F34FF34FF34FF34FF34FF34D3
:10055000FF34FF34FF34FF34FF34FF34FF34FF3403
:10056000FF34FF34FF34FF34FF34FF34FF34FF34F3
:10057000FF347F341F340F3407340734033401341D
:1005800000340034003400340034003400340034CB
:1005900000340034003400340034003400340034BB
:1005A00000340034003400340034003400340034AB
:1005B000003400340034003400340034003400349B
:1005C0000034003400340034003401340334073480
:1005D00007340F343F34FF34FF34FF34FF34FF342B
:1005E000FF34FF34FF34FF34FF34FF34FF34FF3473
:1005F000FF34FF34FF34FF34FF34FF34FF343F3423
:100600000F340734013400340034003400348034B3
:100610008034C034C034C034E034603460342034BA
:1006200030343034303430343034303430343034AA
:1006300060346034E034E034C034C034803480341A
:100640000034003400340034013403340F341F34D8
:100650007F34FF34FF34FF34FF34FF34FF34FF3482
:10066000FF34FF34FF34FF34FF341F3407340334C6
:1006700000340034003400340034003400340034DA
:1006800000340034003400340034003400340034CA
:10069000003400340034003480348034C034C0343A
:1006A000C034C034C034C034C0348034003400346A
:1006B000003400340034003400340034003400349A
:1006C000003400340034003400340034003400348A
:1006D0000034003400340334FF34FF34FF34FF347B
:1006E000FF34FF34FF34FF34FF34FF34FF34FF3472
:1006F000FF34FF34FF34FF34FF3403348034E034FC
:10070000E034F034F834FC34FE34FE34FF34FF348B
:10071000FF340F3403340134003400340034003427
:100720000034003400340034003400340034003429
:10073000003400340034013403340F34FF34FF3408
:10074000FF34FF34FE34FC34FC34F834F034E0344D
:1007500080340334FF34FF34FF34FF34FF34FF347C
:10076000FF34FF34FF34E734E034E034E034E03485
:10077000E034E034E034E034E034E034E034E034D9
:10078000E034E034E034E034E034E034E034E034C9
:10079000E034FC34FE34FF34FF34FF34FF34FF34E4
:1007A000FF34FF34FF347F343F341F3406340034C9
:1007B0000034003400340034003400340034003499
:1007C0000034003400340034003400340034003489
:1007D00000348034E034FE34FF34FF34FF34FF341F
:1007E000FF34FF34FF34FF34FF34FF34FF34FF3471
:1007F000FF34FF34FF34FF34FF34E034013403347A
:1008000007340F341F341F343F347F347F34FF34B8
:10081000FF34F834E034C034803400340034003421
:100820000034003400340034003400340034003428
:100830000034003480348034E034F034FF34FF344A
:100840007F347F343F341F341F340F340734033474
:100850000134E034FF34FF34FF34FF34FF34FF341D
:10086000FF34FF34FF34FF34FF34FF34FF34FF34F0
:10087000FF34FF34FF34FF34FF34FF34FF34FF34E0
:10088000FF34FF34FF34FF34FF34FF34FF34FF34D0
:10089000FF347F343F343F341F340F340734033484
:1008A00003340134003400340034003400340034A4
:1008B0000034003400340034003400340034003498
:1008C0000034003400348034C034E034F034FC347C
:1008D000FE34FF34FF34FF34FF34FF34FF34FF3481
:1008E000FF34FF34FF34FF34FF34FF34FF34FF3470
:1008F000FF34FF34FF34FF34FF34FF34FF34FC3463
:10090000F834E034C034803400340034003400342F
:100910000034013401340334033403340234063424
:100920000634043404340434043404340634063401
:10093000023403340334033401340134003400340A
:100940000034003400348034C034E034F034FC34FB
:10095000FF34FF34FF34FF34FF34FF34FF34FF34FF
:10096000FF34FF34FF34FF34FF34FF34FF34FF34EF
:10097000FF34FF34FF34FF34FF34FF34FF347F345F
:100980003F341F341F340F3407340334013401342F
:1009900000340034003400340034003400340034B7
:1009A00000340034003400340034003400340034A7
:1009B00000348034C034C034E034F034F034F834DF
:1009C000FC34FE34FF34FF34FF34FF34FF34FF3493
:1009D000FF34FF34FF34FF34FF34FF34FF34FF347F
:1009E000FF34FF34FF34FF34FF34FF34FF34FF346F
:1009F000FF34FF34FF34FF34FF34FF34FF34FF345F
:100A0000FF34FF34FF34FF34FF34FF34FE34FC3452
:100A1000FC34F834F834F034F034F034E034E034BA
:100A2000E034E034E034E034E034E034E034E03426
:100A3000E034F034F034F034F834F834FC34FC347E
:100A4000FE34FE34FF34FF34FF34FF34FF34FF3410
:100A5000FF34FF34FF34FF34FF34FF34FF34FF34FE
:100A6000FF34FF34FF34FF34FF347F343F341F340E
:100A70000F340F34073403340134013400340034AC
:100A800000340034003400340034003400340034C6
:100A900000340034003400340034003400340034B6
:100AA00000340034003400340034003400340134A5
:100AB000013401340134013401340134013401348E
:100AC000013401340134013401340134013401347E
:100AD000013401340134013401340134013401346E
:100AE0000134FF34FF34FF34FF34FF34FF34FF346C
:100AF000FF34FF34FF34FF34FF34FF34FF34FF345E
:100B0000FF34FF34FF34FF34FF34FF34FF34FF344D
:100B1000FF34FF34FF34FF34FF34FF34FF34FF343D
:100B2000FF34FF34FF34FF34FF34FF34FF34FF342D
:100B3000FF34FF34FF34FF34FF34FF34FF34FF341D
:100B4000FF34FF34FF34FF34FF34FF34FF34FF340D
:100B5000FF34FF34FF34FF34BF349F348F348F347D
:100B600087348334813480348034803480348034DA
:100B700080348034803480348034803480348034D5
:100B800080348034803480348034803480348034C5
:100B900080348034803480348034803480348034B5
:100BA00080348034803480348034803480348034A5
:100BB0008034803480348034803480348034803495
:100BC0008034803480348034803480348034803485
:100BD0008034803480348034803480348034803475
:100BE0008034FF34FF340A148A100A1582073F3418
:100BF00006345B344F343430840083130008031907
:100C00000F2E0130F800F701F70B042EF80B032E1E
:100C10004A30F700F70B0A2E0D2E800B012E08002C
:100C2000003083168800861183128611CB080319C1
:100C30001E2E8316861083128614222E831606100B
:100C40008312061400008316880183124C08880062
:100C50000000831606128312061600008316061281
:100C6000831206128316061083120610831686104E
:100C7000831286100800F701F80144080310451894
:100C8000F707F70CF80CC518F707F70CF80C45191F
:100C9000F707F70CF80CC519F707F70CF80C451A0D
:100CA000F707F70CF80CC51AF707F70CF80C451BFB
:100CB000F707F70CF80CC51BF707F70CF80C080042
:100CC000BC013C08073C031CA52E831606118312A9
:100CD0000611CB014030CC0010260130CB00403053
:100CE000CC0010263C08B838BE00CB013E08CC0032
:100CF00010263C08B838BE000130CB003E08CC00BE
:100D000010268316061183120615BD013D083F3CCF
:100D1000031CA32EFF30C4003B08C5003B26780807
:100D2000BE00CB017808CC001026FF30C4003B0881
:100D3000C5003B267808BE000130CB007808CC0007
:100D40001026BD0A862EBC0A612E08008316861264
:100D50008312861683160612831206128316061055
:100D600083120610831686108312861083160611CE
:100D700083120611CB01C030CC0010260130CB000D
:100D8000C030CC001026CB014030CC001026013002
:100D9000CB004030CC001026CB01B830CC00102660
:100DA0000130CB00B830CC001026330BE12ECB0144
:100DB0003F30CC0010260130CB003F30CC00102655
:100DC000EA2ECB013E30CC0010260130CB003E3065
:100DD000CC001026BB0160268A150A12062EFF30B1
:100DE00083168800861183128615CA080319FD2E02
:100DF0008316861083128614012F83160610831221
:100E00000614000083160612831206160000FF3037
:100E10008316880083120808CB00831606128312FB
:100E2000061283160610831206108316861083128C
:100E300086104B08F8000800481044083F3C03188F
:100E4000242F4030C4024814831606118312061161
:100E5000C4134417003048180130C900CB004408BF
:100E6000CC001026003048180130C900450CF700AE
:100E7000F70CF70C1F30F7057708BF39B838CA00F0
:100E80004908CB004A08CC001026831606118312AD
:100E90000615003048180130C900CA00EF2600309E
:100EA00048180130C900CA00EF267808C700460B71
:100EB000692F45080739C9000130F7004908F800D3
:100EC0000319662F0310F70DF80B622F7708C7047C
:100ED000792F45080739C9000130F7004908F800A3
:100EE0000319762F0310F70DF80B722F7708FF3ACE
:100EF000C705831606118312061100304818013009
:100F0000C900CB004408CC001026831606118312BA
:100F10000615003048180130C900CB004708CC0046
:100F200010260800F801F901F701FA013608031D3F
:100F30009C2F35080319B62F1030B7000310B30DDE
:100F4000B40DF70DFA0D36087A02031DA92F3508E6
:100F50007702031CB22F3508F702031CFA03360888
:100F6000FA020314F80DF90DB70B9E2F8A150A1219
:020F7000582EF9
:10100000FB0008307A078A007B08093E03188A0A29
:1010100082000034003400340034003400340034E2
:101020000034003400340034003400340034003420
:101030000034003400340034003400340034003410
:101040000034003400340034003400340034003400
:1010500000340034003400340034003400340034F0
:1010600000340034003400340034003400340034E0
:1010700000340034003400340034003400340034D0
:1010800000340034003400340034003400340034C0
:1010900000340034003400340034003400340034B0
:1010A00000340034003400340034003400340034A0
:1010B0000034003400340034003403341F343F342F
:1010C000FF34FF34FF34FF34FF34FF34FF34FF3488
:1010D000FF34FF34FF34FF34FF34FF34FF34FF3478
:1010E000FF34FF34FF34FF34FF34FF34FF34FF3468
:1010F000FF34FF34FF34FF34FF34FF34FF34FF3458
:10110000FF34FF34FF34FF34FF34FF34FF34FF3447
:10111000FF34003400340034003400340034003430
:10112000003400340034003400340034003400341F
:10113000003400340034003400340034003400340F
:1011400000340034003400340034003400340034FF
:1011500000340034003400340034003400340034EF
:1011600000340034003400340034003400340034DF
:10117000003480348034803480348034003400344F
:1011800000340034003400340034003400340034BF
:1011900000340034003400340034003400340034AF
:1011A000003400340034003400340034003400349F
:1011B000003400340034003400340034003400348F
:1011C00000340034013401348134EF34DF34FF342F
:1011D000FF34FF34FF34FF34FF34FF34FF34FF3477
:1011E000FF34FF34FF34FF34FF34FF34FF34FF3467
:1011F000FF34FF34FF34FF34FF34FF34FF34FF3457
:10120000FF34FF34FF34FF34FF34FF34FF34FF3446
:10121000FF3400340034003400340034003400342F
:10122000003400340034003400340034003400341E
:101230008034C034C034E034E034F034F034F0347E
:10124000F8347834383438341C341C341C341C34AE
:101250001E341E341E341E341E341E341E341E34FE
:101260001E341E341E341E348E34CE346E346E342E
:101270002E348F34DC34BC34FC34D4341434143481
:101280001634163406340E340C340C340C34043456
:101290000C34083408340034003400340034003492
:1012A000003400340034003400340034003400349E
:1012B00000340034403440348034883488340C3472
:1012C000043406340734073407340734073407344A
:1012D0000734073407340F340F340F340F340F340E
:1012E0000F341F341F341F341F341F341F343F3456
:1012F0003F343F343F343F343F343F343F343F3456
:101300007F347F347F347F347F347F347F347F3445
:10131000FF3400340034003400340034003400342E
:10132000003400340034F034F834FC34FE34FF343C
:10133000FF34FF34FF34FF34FF34FF343F340334D1
:1013400000340034003400340034003400340034FD
:1013500000340034003400340034003400340034ED
:10136000003400340034003403340F3418340034B3
:1013700000341F341F341F342F342434003400341D
:1013800000340034003400340034003400340034BD
:10139000003400340034003460347034F634FE34E9
:1013A000FF34FF34FF34FF34FE34F0348034003433
:1013B000003400340034E234C234C6348734073495
:1013C0000F341E341E343E34FC34F834F034E03430
:1013D00080340034003400340034003400340034ED
:1013E000003400340034003400340034003400345D
:1013F000C034E034F034F834F834F034E034C0343D
:10140000C0348034803480348034803480348034FC
:1014100080340034003400340034003400340034AC
:10142000003400341E347F34FF34FF34FF34FF3483
:10143000FF34FF34FF34FF34FF34F034C034003461
:1014400000340034003400340034003400340034FC
:1014500000340034003400340034003400340034EC
:1014600000340034003400340034003400340034DC
:10147000003400340034C0340034C034003400344C
:1014800000340034003400340034003400340034BC
:1014900000340034003400340034083400340134A3
:1014A0003F347F34FF34FF34FF34FF34BF348034A3
:1014B0000034003400340334073407348334803478
:1014C0008034C034C034F0347B343F343F340F3484
:1014D0000334003400340034003400340034003469
:1014E00000340034003400340034003400343F341D
:1014F0007F34FF343F341F341F341F340F340F3414
:101500000F340734073407340734073407340734FB
:101510000734003400340034003400340034003424
:101520000034003400340034003401340334073410
:101530000F341F341F343F347F347F34FF34FE3484
:10154000F834F034C034C034803480348034003413
:10155000003400340034003400340034003480346B
:1015600080348034803480348034803480348634D5
:10157000903480348034813480348F348934C13461
:1015800080348034803480348034803400340034BB
:1015900000340034003400340034003400340034AB
:1015A0000034003400340134013401340134003497
:1015B000003400340034003400340034003400348B
:1015C000003400340034003400340034003410346B
:1015D0001034303470347034F034F034F034F0348B
:1015E000F034F034F034F034F034F034F034F034DB
:1015F000F034F034F034F034F034F034F034F034CB
:10160000F034F034F034F034F034F034F034E034CA
:10161000E03400340034003400340034003400344A
:10162000003400340034003400340034003400341A
:10163000003400340034003400340034003400340A
:1016400000340134013401340134033403340334ED
:1016500003340334033403340734073407340734C2
:1016600003340334033403340334033403340334C2
:1016700003340334033403340134013400340034BC
:1016800000340034003400340034003400340034BA
:1016900000340034003400340034003400340034AA
:1016A000003400340034003400340034003400349A
:1016B000003400340034003400340034003400348A
:1016C000003400340034003400340034003400347A
:1016D0000034003400340034013403340F341F3438
:1016E0003F34FF34FF34FF34FF34FF34FF34FF3422
:1016F000FF34FF34FF34FF34FF34FF34FF34FF3452
:10170000FF34FF34FF34FF34FF34FF34FF34FF3441
:10171000FF3400340034003400340034003400342A
:101720000034003400340034003400340034003419
:101730000034003400340034003400340034003409
:1017400000340034003400340034003400340034F9
:1017500000340034003400340034003400340034E9
:1017600000340034003400340034003400340034D9
:1017700000340034003400340034003400340034C9
:1017800000340034003400340034003400340034B9
:1017900000340034003400340034003400340034A9
:1017A0000034003400340034003400340034003499
:1017B0000034003400340034003400340034003489
:1017C0000034003400340034003400340034003479
:1017D0000034003400340034003400340034003469
:1017E00000340034013407340F343F347F34FF3485
:1017F000FF34FF34FF34FF34FF34FF34FF34FF3451
:10180000FF34FF34FF34FF34FF34FF34FF34FF3440
:10181000FF343608FA003508840083137A188317DA
:1018200080080319F02C3608FA0035088400831369
:101830007A1883170008523C031C402C3608FA0023
:101840003508840083137A18831720300002C30000
:10185000C4000530C5008A113B268A157808C200ED
:10186000F8000530F7003D308400831378088A11B2
:1018700004208A158000F80A840AF70B362C722C93
:101880003608FA003508840083137A188317000895
:101890007E3C031C6D2C3608FA0035088400831347
:1018A0007A18831753300002C300C4000530C50006
:1018B0008A113B268A157808C200F8000530F70027
:1018C0003D308400831378088A110A218A1580002C
:1018D000F80A840AF70B632C722CBD01BE01BF010C
:1018E000C001C1013608FA003508840083137A1854
:1018F000831700080A3A0319812C073A03198C2C24
:101900008E2C0730C4003708C5008A113B268A1583
:1019100001307807B407EB2CB301EB2C0530C40081
:101920003708C5008A113B268A15780833077F3CA3
:101930000318A52CB3010730C4003708C5008A116D
:101940003B268A1501307807B407B9013908043CF1
:10195000031CEB2CBA013A08063C031CE72C3D3073
:101960003907840083130008C200F7003A08F80022
:101970000319BE2C0310F70CF80BBA2C771CE52CBE
:10198000BB0137083B020318E52CBC0137083C02B9
:101990000318E32C3C083307C2003A08C400370898
:1019A000C5008A113B268A15780834073B07C30017
:1019B0004208C4004308C5003808C6008A111C2725
:1019C0008A15BC0AC62CBB0AC12CBA0AAB2CB90AB0
:1019D0003708B307A62CB50A0319B60AB30A092CAF
:1019E0000800B801B7018030B9004030BA00BB012F
:1019F0008A1160268A15B308031D3B2DB4013A08ED
:101A0000340203183A2DB501390835020318372D71
:101A1000B6013608073C031C322D3808FA00370897
:101A20008A11EA218A15BB00F7003608F80003196D
:101A30001D2D0310F70CF80B192D0030771801300D
:101A4000003C003A0319302D36083407BB00350836
:101A5000C4003B08C5000130C6008A111C278A1546
:101A6000B60A092DB70A0319B80AB50A042D0830B9
:101A7000B407FF2CAC2D330B732DB4013A0834029C
:101A80000318722DB5013908350203186F2DB60100
:101A90003608073C031C6A2D3808FA003708002076
:101AA000BB00F7003608F80003195A2D0310F70C95
:101AB000F80B562D771C682D36083407BB00350807
:101AC000C4003B08C5000130C6008A111C278A15D6
:101AD000B60A482DB70A0319B80AB50A432D0830CB
:101AE000B4073E2DAC2DB4013A0834020318AC2DD6
:101AF000B501390835020318A92DB6013608073C8F
:101B0000031CA42D3808FA0037080A168A11002091
:101B10000A128A15BB00F7003608F8000319942D45
:101B20000310F70CF80B902D771CA22D3608340704
:101B3000BB003508C4003B08C5000130C6008A114F
:101B40001C278A15B60A7E2DB70A0319B80AB50AEA
:101B5000792D0830B407742D8A150A128F2EA00132
:101B6000A301A401FF30A50083161F149F141F15A5
:101B70009F1107309C0083131F308305533083125D
:101B8000A6007430A7006130A8007230A90074303C
:101B9000AA006930AB006E30AC006730AD002E306B
:101BA000AE00AF00B000B100B2010830831685006E
:101BB000003087008312A50020088A11F3258A15BA
:101BC000B3000030A5008316870183123308870015
:101BD00083161F1383121F139F1783169F178312D9
:101BE0001F1483161F109F141F159F150030F80037
:101BF00083121F08C73978049F006430B4008A112B
:101C0000FB258A150130B3008A11A62E8A151730DC
:101C1000B3000F30B400B6012630B5000130B70074
:101C2000B80009240230B300FA30B4008A11FB2551
:101C30008A15B30B142E0130BB008A1160268A1559
:101C40000230B300FA30B4008A11FB258A15B30BB9
:101C5000222E1730B3000F30B400B6012630B50085
:101C60000130B700B80109240230B300FA30B400E3
:101C70008A11FB258A15B30B362EBB018A1160260B
:101C80008A151F151F19422E83161E088312A100E4
:101C90001E08A2006430B4008A11FB258A152208B0
:101CA000B4002108B300B6013230B5008A11922F7A
:101CB0008A157808A30023088A11F3258A15B30032
:101CC0000030A5008316870183123308870083162E
:101CD00085158312851D7D2E0230B300FA30B400C5
:101CE0008A11FB258A15B30B6E2EA408031D7A2ECC
:101CF00001307B2E0030A400A001240B992E230874
:101D00002002031C852E0030862E2008A000013002
:101D1000BB008A1160268A152008B300F12CA00AA6
:101D20000C30B300FA30B4008A11FB258A15B30BCE
:061D3000922E412E63001B
:10200000FB0010307A078A007B08093E03188A0A11
:1020100082000034003400340034003400340034D2
:102020000034003400340034003400340034003410
:10203000803480348034C034C03480348034803480
:102040008034003400340034E03430341834CC347C
:10205000EC342C3428345834B0347034E0348034C8
:1020600000340034003400340034003400340034D0
:1020700000340034003400340034003400340034C0
:1020800000340034003400340034F034F8340834C0
:102090008834783430342034E034C03400340034B0
:1020A0000034003400340034003400340034003490
:1020B0000034003400340034003400340034003480
:1020C0000034003400340034003400340034003470
:1020D0000034003400340034003400340034003460
:1020E0000034003400340034003400340034003450
:1020F0000034003400340034003400340034003440
:10210000003400340034003400340034003400342F
:10211000003400340034003400340034003400341F
:102120008034C034E034F034F834F834FE34FF3412
:10213000E73407340334033403340334FB34FB340F
:10214000E7340734033407340734043400340F34DD
:102150000F34083430343034203411341434033420
:102160000F344C3448340834183410343034E034EC
:10217000803400340034003400340034003400343F
:1021800000340034003407340F340D34193419345A
:10219000F034F03400340034B1343F34FC34E034F3
:1021A000C0340034003400340034003400340034CF
:1021B000003400340034003400340034003400347F
:1021C000003400340034003400340034003400346F
:1021D000003400340034003400340034003400345F
:1021E000003400340034003400340034003400344F
:1021F000003400340034003400340034003400343F
:10220000003400340034003400340034003400342E
:10221000003400340034003400348034F834FE34A8
:10222000FF34FF34FF34FF34FF34FF34FF34FF3416
:1022300000340034803400343E3400340034003440
:1022400000340034003400340834013410341034C5
:102250000034003400340034203420341834103476
:102260000034083400340034083400341034C034EE
:1022700003341E34F834C0340034003400340034E5
:10228000003400340034003400340034003480342E
:102290008034C134E334FF34FF34FF34FF34FF347F
:1022A000FF3430340034003400340034003400345F
:1022B000003400340034003400340034003400347E
:1022C000003400340034003400340034003400346E
:1022D00000340034003400340034803400340034DE
:1022E00080348034803400340034003400340034CE
:1022F000003400340034003400340034003400343E
:10230000003400340034003400340034003400342D
:1023100000340034003400344034FF34FF34FF34E0
:10232000FF34FF34FF34FF347F341F3407349034DC
:1023300024340834C234E134F034703410340034BE
:1023400000340434003400340034003400340834E1
:102350001834003410342034003400348034803495
:102360008034603410340834C034343402340034DF
:1023700000340034003407340E3418343034203440
:10238000303470347834FC34FE34FE34FF34FF349F
:10239000FF34FF34FF34F734F734E334E334E1340B
:1023A000E034E034E034E034E034E034E034E0348D
:1023B000E034E034E034E034E034E034E03400345D
:1023C000003400340034003400340034003400346D
:1023D0000034003400340034F834F9340134033468
:1023E000013401340134003400340034003400344A
:1023F000003400340034003400340034003400343D
:10240000003400340034003400340034003400342C
:10241000003400340034003400340F343F347F344F
:10242000FF34FF34FF34C334C034C034C034C33449
:10243000C034C03483348834003410341034003451
:1024400000340034003400340034003400340034EC
:10245000003400341C3402340134003400340034BD
:1024600009340634063401348034C03460343034E6
:1024700018340C3406340234063406341D347F34E8
:10248000FF34FF34F634F434F434EC34ED34D9341E
:10249000D934BB34BB347B347F347F3477346734F6
:1024A00047340F34CF34FF34FF34FF34FF34FF346C
:1024B000FF34FF34FF34FF34FF34FF34FF34F8348B
:1024C000F034F034F034F034F034F034E034E0340C
:1024D000E0346034603460347F347F34003400345E
:1024E000003400340034003400340034003400344C
:1024F000003400340034003400340034003400343C
:10250000003400340034003400340034003400342B
:10251000003400340034003400340034003400341B
:102520000F341F341F343F343F343F343F343F3483
:102530003F343F34FF34FF343F341F349F34CF34B3
:10254000673437341334033400340834083418340F
:102550008034E034303430341034103418340834DB
:102560000C340634023403340134003400340034B3
:1025700000340034003400340034003400340034BB
:10258000003403340F34FF34FF34FF34FF34FF349E
:10259000FD34F33403340734073406340E340C347A
:1025A0001C341C343F343F347F347F34FF34FF34D9
:1025B000FF34FF34FF34FF347F341F341F341F34A3
:1025C0001F341E341E341E341E341E341E341C347C
:1025D0000C340C340C340C340C340C340C340C34FB
:1025E0000C340E340634063406340634063407340C
:1025F000073403340334023400340E341D343834C9
:10260000003400340034003400340034003400342A
:10261000003400340034003400340034003400341A
:10262000003400340034003400340034003400340A
:1026300000341F343F346034603447344F344834FE
:10264000683460343434303418340C340E34073485
:1026500003340034003400340034003400340034D7
:10266000003400340034C034C0346034603460342A
:10267000603420342034203420342034203430346A
:10268000DC349E34DF347F347F343F341F340F34E6
:102690000334013400340034003400340034003496
:1026A000003400340034003400340034003400348A
:1026B0000134013403340134003400340034003474
:1026C000003400340034003400340034003400346A
:1026D000003400340034003400340034003400345A
:1026E000003400340034003400340034003400344A
:1026F000003400340034003400340034003400343A
:102700000034003400340034003400340034003429
:102710000034003400340034003400340034003419
:102720000034003400340034003400340034003409
:1027300000340034003400340034003400340034F9
:1027400000340034003400340034003400340034E9
:1027500000340034003400340034003400340034D9
:1027600000340034003401340F341A341834323455
:10277000303418341E341E34123410341E340F34E6
:1027800001340034003400340034003400340034A8
:102790000034003400340034003400340034003499
:1027A0000034003400340034003400340034003489
:1027B0000034003400340034003400340034003479
:1027C0000034003400340034003400340034003469
:1027D0000034003400340034003400340034003459
:1027E0000034003400340034003400340034003449
:1027F0000034003400340034003400340034003439
:102800000034003400340034003400340034003428
:02281000003492
:02400E00723FFF
:00000001FF
;PIC16F877A
;CRC=0C8D  CREATED="06-Jan-21 19:44"
